:020000040800F2
:1000000068040020311C0008BD1B0008BF1B00084D
:10001000C11B0008C31B0008C51B0008000000002E
:10002000000000000000000000000000C71B0008E6
:10003000C91B000800000000CB1B0008CD1B0008F6
:100040004D1C0008511C0008551C0008591C0008D4
:100050005D1C0008611C0008651C0008691C000884
:100060006D1C0008711C0008751C0008791C000834
:100070007D1C0008811C0008851C0008891C0008E4
:100080008D1C0008911C0008951C0008991C000894
:100090009D1C0008A11C0008A51C0008A91C000844
:1000A000AD1C0008B11C0008B51C0008B91C0008F4
:1000B000BD1C0008C11C0008C51C0008C91C0008A4
:1000C000CD1C0008D11C0008D51C0008D91C000854
:1000D000DD1C0008E11C0008E51C0008E91C000804
:1000E000ED1C0008F11C0008F51C0008F91C0008B4
:1000F000FD1C0008011D0008051D0008091D000861
:100100000D1D0008111D0008151D0008191D00080F
:100110001D1D0008211D0008251D0008291D0008BF
:100120002D1D0008311D0008351D0008391D00086F
:100130003D1D0008411D0008451D0008491D00081F
:100140004D1D0008511D0008551D0008591D0008CF
:100150005D1D0008611D0008651D0008691D00087F
:100160006D1D0008711D0008751D0008791D00082F
:100170007D1D0008811D0008851D0008000000008D
:10018000891D00088D1D00082DE9F047040082B08C
:100190001AD0DFF82056DFF82866A86800F00C08AF
:1001A000E86800F003092078C10650D5B8F1000FC7
:1001B00005D0B8F10C0F08BFB9F1010F2AD128689A
:1001C000810703D5A069002800F02381296808076A
:1001D0004EBF296871680909206A01F0F001814267
:1001E00006D200F0ABFA002808D100F0C2F907E00F
:1001F00000F0BFF9206A00F0A1FA002840F0098160
:1002000000F04EFA00F040FA00F0ECFA010000F0C5
:10021000EE80ACE1A06988B1296841F00101296054
:1002200000F0F8FA07462868810700F1DE8000F048
:10023000F1FAC01B0328F6D3032098E12868400890
:100240004000286000F0E6FA07462968880740F178
:10025000CE8000F0DFFAC01B0328F6D3ECE760681D
:10026000B0F5803F06D0B0F5A02F296807D141F442
:1002700080212960286840F48030286006E021F45D
:10028000803129602A6822F480222A60606860B187
:1002900000F0C0FA07462968880300F1BC8000F02E
:1002A000B9FAC01B6528F6D3C6E700F0B3FA0746D3
:1002B0002868810340F1AF8000F0ACFAC01B6528CC
:1002C000F6D3B9E700F0A6FAC01B0328C0F0CB8034
:1002D000B2E7E06880B1296841F48071296000F0DC
:1002E00099FA07462868410500F1ED8000F092FA7E
:1002F000C01B0328F6D39FE7286820F4807028608D
:1003000000F088FA07462968480540F19E8000F011
:1003100081FAC01B0328F6D38EE7706840084000BE
:10032000706000F077FA07467068810740F19F809F
:1003300000F070FAC01B0328F6D37DE7052830686B
:1003400006D140F004003060316841F0010105E061
:10035000400840003060316821F004013160A0683D
:1003600041F2893A60B100F055FA074631688807D2
:1003700000F1BA8000F04EFAC01B5045F6D35BE79F
:1003800000F048FA07463068810740F1AD8000F080
:1003900041FAC01B5045F6D34EE700F03BFAC01BB4
:1003A0000328C0F0B78047E700F034FAC01B0328E9
:1003B000C0F0D88040E7296811F0205F03D1E868D9
:1003C00080088000E860E968DFF8F8030140E96030
:1003D00000F020FA07462868810140F1C78000F04C
:1003E00019FAC01B0328F6D326E700F0C2F82078DC
:1003F000C10710D5B8F1080F06D0B8F10C0F08BF2F
:10040000B9F1030F7FF42BAF2868810303D560682F
:1004100008B90120ABE02178880716D5B8F1040FA0
:1004200006D0B8F10C0F08BFB9F1020F7FF451AF3D
:100430002868410502D5E0680028EAD0696820698B
:1004400021F0F85141EA00616960217808070ED572
:10045000606900283FF461AF716841F0010171608B
:1004600000F0D8F90746706881077FF52BAF217837
:10047000480740D5A86DC1004FF000090AD4A86D07
:1004800040F08050A8654FF00109A86D00F0805041
:1004900000900098DFF830A3DAF80010C8051AD4ED
:1004A000DAF8000040F48070CAF8000000F0B2F9F9
:1004B0000746DAF80010C8050DD400F0ABF9C01BF0
:1004C0000328F6D3B8E66868216920F0F85040EABE
:1004D00001606860B9E7A06801287FF42FAF306839
:1004E00040F0010030603AE7B9F1000F03D0A86D89
:1004F00020F08050A865A06AC0B3B8F10C0F88D076
:100500000228286820F0807028607FF454AF00F043
:1005100081F90746296888013FF53FAF206B616B81
:10052000401E090241EA0011A06B000941EA404166
:10053000E06A0143E06B801E0005400D41EA405136
:10054000206C801E000600F07E400143E9602868B0
:1005500040F080702860E96841F08071E96000F047
:1005600059F90746286881017FF51EAF0020BDE8D4
:10057000F687286840F0080028602968206A21F082
:10058000F001014329606868E16920F47F4040EA96
:100590000120686070472DE9F0410400884667D06B
:1005A000DFF82872386800F00700404502D200F0FA
:1005B00061F85DD12178DFF8FC51C80747D5606844
:1005C000032802D129688A0107E0022802D129689C
:1005D0008A0302E018B929688A0703D448E02A6828
:1005E000510545D5A968890840EA8100A86000F056
:1005F00011F90646A868616800F00C00B0EB810FA5
:1006000025D000F007F9801B41F289329042F1D3E6
:1006100003201AE02078410705D5A968E06821F495
:10062000E0610143A9602078010706D5A868216927
:1006300020F4605040EAC100A86000F031F800F0FA
:1006400023F8BDE8F04100F0CDB8BDE8F081207896
:10065000810705D5A968A06821F0F0010143A960D0
:10066000386800F007008045D4D200F003F8D1D0FC
:100670000120EAE73968C90848EAC10139603868E9
:1006800000F0070040457047AA685149C2F30312C1
:10069000895C494A01F01F01C84010600020704782
:1006A00010B5444A9068D4680023002110F00C0073
:1006B00004F0030403D00C2812D1012C1AD11368C2
:1006C0001C0704D43D4B1C68C4F3032302E01368E9
:1006D000C3F303133F4C54F8233048B9194628E0BC
:1006E000042808BF3C4924D0082822D13B4920E0F7
:1006F0000C281ED1D068D168C1F30211491C00F04A
:100700000300022802D0032802D005E0324800E0AE
:100710003248B0FBF1F101E0B3FBF1F1D068C0F376
:1007200006204143D068C0F34160401C4000B1FB4B
:10073000F0F1084610BD20480068704770B5284E9B
:1007400082B0054630680024C10002D500F068F888
:100750000EE0306840F080503060316801F0805128
:100760000091009800F05CF8316821F08051316010
:10077000B0F5007F04D1802D0CD9A12D09D304E060
:10078000802D88BF032405D801D1022402E0702DFA
:1007900000D101240D480168C90844EAC101016083
:1007A000006800F00700A04201D0012076BD0020C3
:1007B00076BD0000001002405C0000209410024052
:1007C00090100240FFFFEEFE00700040002002404B
:1007D0000C1B00081C1B00080024F40000127A0007
:1007E0005810024038B50A490A6804464FF47A7036
:1007F000B2FBF0F000F08BF8002508B1012505E010
:10080000002221464FF0FF3000F064F8284632BD48
:100810005C00002001480068704700BF60000020B5
:10082000DFF87000006800F4C060704710B5DFF8B2
:100830006410B0F5007F086800F4C0601AD1B0F50C
:10084000007F20D00A68DFF85030DFF8504022F4F3
:10085000C06242F400720A6032201A684243B2FB5E
:10086000F4F0401C4A6953050FD5002818BF401EFC
:10087000F8D10AE0B0F5806F05D00A6822F4C062B2
:1008800042F480620A60002010BD48694105FAD533
:10089000032010BD007000405C00002040420F00AB
:1008A0000901002806D52B4A00F00F00104400F87B
:1008B000041C7047284A11547047284A13684FF6A1
:1008C000FF0100020B4000F4E06018432449084394
:1008D0001060704738B5214B1C68C4F30223C3F184
:1008E0000704052C28BF04241D1D072D34BF002339
:1008F000DB1E012505FA04F4641E2140994005FA27
:1009000003F35B1E1A401143BDE83440C8E710B53D
:10091000401EB0F1807F01D3012010BD114C6060FA
:100920000F214FF0FF30FFF7BBFF0022A26007202E
:100930002060002010BD04280A4904D1086840F056
:100940000400086070470A6822F004020A607047D9
:1009500000F00AB818ED00E000E400E00CED00E063
:100960000000FA0510E000E07047000038B5040010
:1009700001D1012032BD04F14005687820B9002181
:100980002970204600F031FB00F041F860682168D2
:1009900020F0706008612068816821F40041816066
:1009A000E068A168012820680CBF41F4004141F4CF
:1009B00004418160E168022903D122684FF400609C
:1009C00050602068416841F0007141F4004141608D
:1009D0002068C16821F40041C16060692169226812
:1009E0000143A06941EA0021D160206AE169014325
:1009F000206801602068016841F001010160002069
:100A000068602020687000202063A87032BD242018
:100A100068702068016849084900016070472DE945
:100A2000F04700F0DBF882B000F0D2F840D129782E
:100A300001293DD001202870FFF7ECFE00F0E9F815
:100A400000283CD1DDF82890212000F0A6F8DFF83E
:100A5000F401B1F5807F06D300F033F800F088F997
:100A6000CDF8289006E000F08AF8F7E700F08EF85D
:100A700000F07EF900F07DF81DD000F0ABF9002801
:100A80001DD100F0B7F80028F4D089B20029F1D1C7
:100A90000A9B00960022802100F0C1F878B900F08E
:100AA0005CF9E3D200F09EF8E2E700F082F800E0A3
:100AB0000220BDE8F68700F0B4F90028F5D0012047
:100AC000F7E7278500904FF08073FF2270472DE9EC
:100AD000F04700F083F882B000F07AF840D129782E
:100AE00001293DD001202870FFF794FE00F091F815
:100AF00000283CD1DDF82890222000F04EF8DFF8E5
:100B00004801B1F5807F06D3FFF7DBFF00F030F935
:100B1000CDF8289006E000F032F8F7E700F036F85C
:100B200000F026F900F025F81DD000F096F9002815
:100B30001DD100F077F80028F4D089B20029F1D156
:100B40000A9B00960022802100F069F878B900F035
:100B500004F9E3D200F046F8E2E700F02AF800E0FA
:100B60000220BDE8F68700F05CF90028F5D00120EE
:100B7000F7E7608D0A990028324620467047628D5B
:100B8000228500904FF00073D2B270472785002075
:100B900000904FF08073FF22704768701020A8709B
:100BA000002068606762A4F82AA06063FF27618D57
:100BB000704720682021C161DFF8900021684A68F1
:100BC00002404A60202068700020A870287070479A
:100BD00068782028884617469A467047044604F1EC
:100BE00040057047628D2285002000904FF0007311
:100BF000D2B27047606A226801789162606A411CD3
:100C00006162608D411E6185208D411E2185608D50
:100C1000704706460096192301224FF400412046F2
:100C200000F0B7B82068416A606A0170606A411CD0
:100C30006162208D411E2185608D421E6285608D1E
:100C400070470000002000800024008000E800FEC3
:100C50002DE9FC4705460020019005F140070E46AE
:100C60007878202891461C463ED12968886901047D
:100C70003AD43978012937D001203870C6F30908F1
:100C80002420787000207860DFF8E0A0E868296808
:100C900001280CBF4AEA080048F420504860FFF7DA
:100CA000B9FD06462868816980694909000901F093
:100CB000010100F00100014319D114F1010FF1D03D
:100CC000FFF7A8FD801B844236D3002CEAD133E025
:100CD00000F03BF830B929682020C8617870002006
:100CE000387002E0012000E00220BDE8F6872868A5
:100CF00081690096C8062346EAD500F026F8002848
:100D0000F0D129681020C86120202A68D06101989C
:100D100048450BD1286800F024F80096234600F0DF
:100D200014F80028DED129682020C8610198401CF1
:100D3000019001984845A9D3202078700021786857
:100D400040F0200078603970CCE70022202128464E
:100D500000F01FB890F841007047608DB0F5807FBB
:100D60007047416841F480414160704700200002B3
:100D700041462046E1E0006881698A0744BF0022BD
:100D800082628169CA0703D4816941F001018161EE
:100D900070472DE9F041069F05460E4690461C46D9
:100DA000286881693140B1420CBF012000204045D4
:100DB0000DD114F1010FF3D0FFF72CFDC01B8442BD
:100DC00001D3002CECD100F020F8012000E000203D
:100DD000BDE8F08170B505460C4616462868816965
:100DE000880710D400F035F858B914F1010FF5D088
:100DF000FFF710FD801B844201D3002CEED100F0E0
:100E000004F8012070BD002070BD05F140002022D3
:100E1000416841F020014160427000218170017001
:100E2000704770B505460C461646286881698806E5
:100E30000DD400F00EF840B9FFF7ECFC801B8442A3
:100E400001D3002CF1D1FFF7E0FF012070BD00209D
:100E500070BD32462146284636E070B505460C4640
:100E600016462868816948072CD4FFF7F2FF38BB83
:100E700029688869820610D4FFF7CCFC801B844265
:100E800001D3002CEDD105F140002022416841F052
:100E9000200141604270002111E08869420701D5BC
:100EA000288D78B92022CA6100F042F84A6005F125
:100EB00040000021416020214170002181700170BB
:100EC000012070BD002070BD70B505460C46286835
:100ED0008169C806164618D5286881698A0616D41D
:100EE00014F1010FF8D0FFF795FC801B844201D369
:100EF000002CF1D105F14000416841F02001416032
:100F00002022FFF789FF012070BD002070BD102155
:100F1000C16120202968C8612846FFF72CFF00F036
:100F200007F805F140004A60416841F00401E6E736
:100F300029680A484A680240704770B50068049CF6
:100F40004568074E46EA5456B543C1F309012943A3
:100F500041EA024119432143416070BD00E800FEAF
:100F6000FF63FF0380B53148816841F00101816072
:100F7000816801F0010100910099016841F0805100
:100F80000160006800F08050009000980320FFF797
:100F900094FC002200216FF00B00FFF79BFC002265
:100FA00000216FF00A00FFF795FC002200216FF08E
:100FB0000900FFF78FFC002200216FF00400FFF70B
:100FC00089FC002200216FF00300FFF783FC002260
:100FD00000216FF00100FFF77DFCBDE80840002212
:100FE00000214FF0FF30FFF775BC006810498842C0
:100FF00000D0704700B585B0C021009112200121BA
:10100000019002910320042103900491694609484C
:1010100000F012F80548016841F400110160006811
:1010200000F400100090009805B000BD5810024078
:1010300000540040000400482DE9F84F4FF000082C
:101040006D4CDFF8B891DFF8B8A14FF00F0B864672
:101050000B4627E06B4DAE4514BF0725062595408E
:10106000354349F82150C14322685D680A40ED03C9
:1010700048BF0243226062685D680A40AD0348BF12
:1010800002436260A2685D680A40ED0248BF024305
:10109000A260E2680A405968890248BF0243E260E0
:1010A00008F101081A6832FA08F000F09D80012169
:1010B00001FA08F111EA0200F2D05D68022D18BFB2
:1010C000122D4FEA880210D14FEAD8050EEB850C9D
:1010D00002F01C05DCF820600BFA05F7BE431F691F
:1010E00007FA05F53543CCF820504FEA480C0325A4
:1010F000DEF800701E7905FA0CF5ED4306F00306E4
:101100002F4006FA0CF63E43CEF80060C9435E68F5
:10111000012E18BF022E03D0112E18BF122E13D18C
:10112000DEF80870DE682F4006FA0CF63E43CEF873
:101130000860DEF804605F68C7F300170E4007FA26
:1011400008F73743CEF804705E6806F00307032FF4
:1011500009D1DEF82C700F40C6F3C00101FA08F186
:101160000F43CEF82C70DEF80C1029409D6805FA6C
:101170000CF52943CEF80C105968C90090D5DAF85F
:10118000001041F00101CAF8001002F00C02DAF878
:10119000001001F0010100910BFA02F600994FEAEC
:1011A000980159F8215025EA0606BEF1904F08BF74
:1011B000002518D0144DAE4508BF012513D0134D9E
:1011C000AE4508BF02250ED0114DAE4508BF032520
:1011D00009D0104DAE4508BF042504D00E4DAE45D4
:1011E0007FF438AF05253AE7BDE8F18F0AB1816198
:1011F0007047816270470000000401400800014010
:101200006010024000180048000400480008004830
:10121000000C004800100048001400482DE9F04779
:10122000064682B03068DFF8187400240105A04635
:1012300021D5706E70B1B0F5800F17D0B0F5000FEA
:1012400003D0B0F5400F09D013E03A6842F4803281
:101250003A6004E0002100F07AF9044654B9F96FCD
:10126000706E21F440010143F96704E000F069F970
:10127000F3E70124A0463068C10421D5B06EA8B1BF
:10128000B0F1807F17D0B0F1007F03D0B0F1407F84
:1012900004D013E0386840F4803038607CB9F96FCE
:1012A000B06E21F040710143F96709E0002100F0C0
:1012B0004EF90446F2E700F044F9FAE70124A046AB
:1012C000306881032BD5F86CC1004FF000090AD4B7
:1012D000F86C40F08050F8644FF00109F86C00F0B1
:1012E000805000900098DFF83054296841F48071F4
:1012F0002960FFF78FFA82462868C10500F1ED806A
:10130000FFF788FAA0EB0A000328F5D30324A046D0
:10131000B9F1000F03D0F86C20F08050F8643178F8
:10132000C80705D5F96FB06B890840EA8101F967F4
:101330003078810705D5F96FF06B21F00C0101437E
:10134000F9673078410705D5F96F306C21F030012D
:101350000143F9673078010705D5F96F706C21F00A
:10136000C0010143F9673078C10605D5F96FB06C4B
:1013700021F440710143F9673078810605D5F96F92
:10138000F06C21F440610143F9673068810505D5AF
:10139000F96FF06D21F440210143F9673068410590
:1013A00005D5F96F306E21F440110143F9673078AB
:1013B000410605D5F96F306D21F440510143F967BD
:1013C0003078010605D5F96F706D21F44041014375
:1013D000F9673068C10505D5F96FB06D21F440316A
:1013E0000143F967306881041CD5F96FF06E00F095
:1013F0009EF8F06EB0F1006F0DD100F09DF811E095
:10140000FFF708FA001B41F289318842C0F083805F
:101410004FF003087CE7B0F1806F03D100F096F83D
:1014200000B180463068010311D5F96F306F00F0CC
:101430007EF8306FB0F1006F02D100F07DF806E069
:10144000B0F1806F03D100F081F800B180463068C0
:10145000410311D5F96F706F00F069F8706FB0F14A
:10146000006F02D100F068F806E0B0F1806F03D1A0
:1014700000F06CF800B180463068410417D5F96F70
:10148000B06F21F040510143F967B06FB0F1805F58
:1014900003D1022100F05BF807E0B0F1005F06D154
:1014A000022106F1200000F0CDF800B1804630683E
:1014B000010405D5F96FF06F21F080410143F96710
:1014C0003068C10306D5F96FD6F8800021F00041DD
:1014D0000143F9674046BDE8F687002C7FF417AF5B
:1014E000DFF86C52286810F440701CBFD6F88410E6
:1014F00088420BD02868296841F48031296020F4A3
:1015000040702A6822F480322A602860C00706D51D
:10151000FFF780F90446286881077FF571AF2968D5
:10152000D6F8840021F4407101432960F0E621F0EF
:1015300040610143F9677047386840F480103860B3
:101540007047002106F1200000F07CB80121301D19
:10155000FFE72DE9F04105467E4F28680C46F96803
:10156000002611F0030F0DD0F96801F0030181424C
:1015700031D180B3F8686968C0F30210401C88421A
:101580000ED028E0012804D025D303281DD018D37D
:1015900021E039688A071ED5F9686A6800F0C4F846
:1015A000386820F0806000F0CFF880463968080184
:1015B00036D5FFF72FF9A0EB08000328F6D3032652
:1015C0003CE039684A05E7D405E03A689103E3D482
:1015D00039684A03E0D4012630E0012C3A690AD187
:1015E0005D4802402869801E000542EA0121400D45
:1015F00041EA405104E059480240686900F09CF813
:101600003961386840F0806000F09EF8044639681F
:1016100008010FD4FFF7FEF8001B0328F7D3CEE72D
:10162000A968002CD9D13A694D480240E86800F019
:1016300075F8E5E73969A8690143396169E0000097
:101640000C1002402DE9F0410446424F20688846C4
:10165000F968002611F0030F0DD0F96801F00301BD
:10166000814230D178B3F8686168C0F30210401C41
:1016700088420ED027E0012804D024D303281CD0B0
:1016800017D320E039688A071DD5F968626800F031
:101690004BF8386820F0805000F056F8054639685D
:1016A000880027D5FFF7B6F8401B0328F7D3032699
:1016B0002FE039684A05E8D405E03A689103E4D49C
:1016C00039684A03E1D4012623E024480240206916
:1016D00000F032F87961386840F0805000F034F85A
:1016E00005463968880010D4FFF794F8401B03289A
:1016F000F7D3DCE7A1687A69B8F1000FE5D11848A3
:101700000240E06800F00AF8E4E7796960690143A3
:1017100079613046BDE8F0810070004042EA012165
:10172000000941EA4041704721F073010843521E0D
:1017300040EA0210F8607047801E000642EA01216C
:1017400000F07E40014370473860FFF763B8000047
:101750009010024000100240FF809FFFFF80FFF9C1
:10176000FF80FDFF10B582B000F000F900F040F8F6
:101770007848794C016841F002010160006800F08E
:1017800002000090009800F07EF8002000F004F9BC
:10179000012000F001F9618864230422201DFFF775
:1017A00057FA08B900F02CF900F08FF801202070EA
:1017B00000F016F800F0D6F82028FBD10A2000909F
:1017C0000123618804F15002201DFFF780F900F029
:1017D000C9F82028FBD14FF4967000F023F9E5E713
:1017E0000A200090012361882246201DFFF717B9C7
:1017F00000B50121B9B010200B91059060210D9129
:1018000000200C9001211091119102200F901421C1
:1018100012910720139002211491159105A8FEF74B
:10182000B3FC00B1FEE70F210091032000210190DD
:1018300002910391049168460221FEF7ACFE00B1CB
:10184000FEE74020169000212A9116A8FFF7E6FC3B
:1018500000B1FEE74FF40070FEF7E8FF00B1FEE7CD
:10186000FEF769FF4FF47A71B0FBF1F0FFF74FF824
:101870000420FFF760F8002200214FF0FF30FFF74F
:1018800029F839B000BD10B5334C34486060344895
:10189000A0600020E0600120206100206061A06164
:1018A000E06120626062201DFFF760F800B1FEE792
:1018B0000021201D00F0C6F800B1FEE70021201D28
:1018C00000F0D8F800B1FEE710BD0A2010B5224C98
:1018D0006188207082B00120607002230A2000908D
:1018E0002246201DFFF79BF800F03CF82028FBD192
:1018F00000202080FFF774FF00F034F82028FBD18F
:101900000A20009001236188621C201DFFF7DFF888
:1019100000F028F82028FBD1607881060CD50F2034
:1019200060700C2121700A2000900223FFF75BFFFA
:1019300000F018F82028FBD10A20207000206070E9
:101940000A2000900223FFF74EFF00F00BF820283A
:10195000FBD113BD4C100240000000200054004099
:10196000EB9B9000201DFFF7F5B90000094810B56A
:10197000016841F4807101600320FEF79EFF0020A2
:10198000FEF730FF0024002814BF0124FFF7EAFA15
:10199000204610BD0020024030B587B00446DFF875
:1019A000781038B9086840F002000860096801F052
:1019B000020108E0012C08D1086840F0100008601E
:1019C000096801F01001009100980FF25400DFF84F
:1019D0004C5030F814000190012102910020039036
:1019E0000321049101A955F82400FFF725FB019973
:1019F00055F82400002289B2FFF7F8FB07B030BD8C
:101A00000FF21C01DFF8143031F8101053F82000E9
:101A10000122FFF7EBBB00004C10024054000020F5
:101A20000400000138B50446FEF7F4FE14F1010F7E
:101A3000054618BF641CFEF7EDFE401BA042FAD31A
:101A400031BD000030B500F140025378202B0FD19A
:101A50001478012C0CD000F02DF81D6825F4805569
:101A60001D6003681C682143196000F019F830BD3F
:101A7000022030BD10B500F140025378202B0DD16B
:101A80001478012C0AD000F015F81C6824F4706456
:101A900044EA01241C6000F003F810BD022010BDD0
:101AA0000068016841F001010160202050700020B1
:101AB00010707047012313702423537003681C684F
:101AC000640864001C600368704700000C490868E3
:101AD00040F00100086000228A600A480A6802405B
:101AE0000A604FF48050C8600022086820F480200B
:101AF00008608A614FF00060034908607047000089
:101B000000100240FFFFF6EA08ED00E000000000D0
:101B1000000000000102030406070809A086010076
:101B2000400D0300801A060000350C0040420F00F3
:101B300080841E0000093D0000127A000024F40099
:101B400000366E010048E801006CDC0230B5016827
:101B500084684218416802EB5103C9070BD54C4415
:101B600009E012F9011B12F8015B002904F8015B7E
:101B700005D5491CF9D19A42F3D10C3030BD491E2C
:101B8000F1D5F8E710B5074979441831064C7C4483
:101B9000163404E00A68081D114488470146A14232
:101BA000F8D110BD0800000014000000A1FFFFFFE5
:101BB000E001000026000000000000207047FEE762
:101BC000FEE7FEE7FEE770477047704780B500F01C
:101BD00005F8BDE80140FEF7BBBE00000248016801
:101BE000491C0160704700BF6000002000F00BF846
:101BF000002801D0FFF7C6FF0020AFF30080FFF7F9
:101C0000B1FD00F002F80120704700F001B80000BB
:101C10000746384600F002F8FBE7000080B5AFF356
:101C20000080024A11001820ABBEFBE7260002002C
:101C30000148804701480047CD1A0008411C0008B0
:101C4000AFF30080AFF30080FFF7D0FFFFF7FEBFD8
:101C5000FFF7FEBFFFF7FEBFFFF7FEBFFFF7FEBFB8
:101C6000FFF7FEBFFFF7FEBFFFF7FEBFFFF7FEBFA8
:101C7000FFF7FEBFFFF7FEBFFFF7FEBFFFF7FEBF98
:101C8000FFF7FEBFFFF7FEBFFFF7FEBFFFF7FEBF88
:101C9000FFF7FEBFFFF7FEBFFFF7FEBFFFF7FEBF78
:101CA000FFF7FEBFFFF7FEBFFFF7FEBFFFF7FEBF68
:101CB000FFF7FEBFFFF7FEBFFFF7FEBFFFF7FEBF58
:101CC000FFF7FEBFFFF7FEBFFFF7FEBFFFF7FEBF48
:101CD000FFF7FEBFFFF7FEBFFFF7FEBFFFF7FEBF38
:101CE000FFF7FEBFFFF7FEBFFFF7FEBFFFF7FEBF28
:101CF000FFF7FEBFFFF7FEBFFFF7FEBFFFF7FEBF18
:101D0000FFF7FEBFFFF7FEBFFFF7FEBFFFF7FEBF07
:101D1000FFF7FEBFFFF7FEBFFFF7FEBFFFF7FEBFF7
:101D2000FFF7FEBFFFF7FEBFFFF7FEBFFFF7FEBFE7
:101D3000FFF7FEBFFFF7FEBFFFF7FEBFFFF7FEBFD7
:101D4000FFF7FEBFFFF7FEBFFFF7FEBFFFF7FEBFC7
:101D5000FFF7FEBFFFF7FEBFFFF7FEBFFFF7FEBFB7
:101D6000FFF7FEBFFFF7FEBFFFF7FEBFFFF7FEBFA7
:101D7000FFF7FEBFFFF7FEBFFFF7FEBFFFF7FEBF97
:101D8000FFF7FEBFFFF7FEBFFFF7FEBFFFF7FEBF87
:101D900002000054AE000904004800100048000989
:031DA0003DFB0008
:0400000508001C4192
:00000001FF
