:020000040800F2
:1000000018040020DD360008B1350008B3350008BB
:10001000B5350008B7350008B93500080000000004
:100020000000000000000000000000007D0F00083C
:10003000BB35000800000000250F0008BD35000892
:10004000193700081D370008213700082537000838
:10005000293700082D3700083137000835370008E8
:10006000393700083D370008413700084537000898
:10007000493700084D370008513700085537000848
:10008000C7350008CF350008593700085D3700082C
:100090006137000865370008693700086D370008C8
:1000A00071370008C1350008753700087937000836
:1000B0007D37000881370008853700088937000838
:1000C0008D370008913700089537000899370008E8
:1000D0009D370008A1370008D7350008A53700086C
:1000E000A9370008AD370008B1370008B537000858
:1000F000B9370008BD370008C1370008C537000808
:10010000C9370008CD370008D1370008D5370008B7
:10011000D9370008DD370008E1370008E537000867
:10012000E9370008ED370008F1370008F537000817
:10013000F9370008FD3700080138000805380008C5
:10014000093800080D380008113800081538000873
:10015000193800081D380008213800082538000823
:10016000293800082D3800083138000835380008D3
:10017000393800083D380008413800080000000008
:1001800045380008493800082DE9F043064617466F
:1001900085B089469846B80000F0A2FC05001AD048
:1001A000542000F09DFC040012D025630020039031
:1001B00002940D980C990190009143463A464946A5
:1001C000304600F00DF8204600F046F8012004E02B
:1001D000284600F00DFD4FF0FF3005B0BDE8F0837C
:1001E0002DE9F0470A9C8146206B00EB8202101F2C
:1001F000C0084FEAC00A0022885CA51885F83400C0
:10020000885C10B1521C102AF6D3089E002084F896
:100210004300062E099D88BF062604F14407E662C6
:100220003E6078609846201D00F03FFD04F1180004
:1002300000F03BFD2461C6F10706A6616462002060
:10024000B860387342464946504600F069FD206068
:1002500005B12C60BDE8F0872DE9F04100F07FF892
:10026000DFF8CC57DFF8F887E86C401CE864142608
:10027000A86A28BBAC62E86C012829D1002706FBDC
:1002800007F0404400F004FD7F1C072FF7D305F171
:10029000740000F0FDFC05F18807384600F0F8FC1A
:1002A000284600F0F5FC05F1140000F0F1FC05F122
:1002B000380000F0EDFC05F17400E8622F6307E000
:1002C000A86D28B9E16AA86AC26A914228BFAC62E7
:1002D000A86E401CA86600F08CFB4643211D08EB6D
:1002E000060000F0E5FC00F0AEFDA86D08B100F0DE
:1002F000A9FBBDE8F08138B500F031F8DFF83057E0
:1003000004B9AC6A00F021FA20B900F067F808B926
:1003100000F07FF8A06A08B100F03EF9A86E401C1A
:10032000A866A86A844208D1211D05F1140000F0D6
:10033000BFFC686B401C686307E0E86C401EE86423
:10034000204600F071FA00F079FA00F07CFDA86D0B
:1003500020B1A96A8C4201D100F047F831BD0446B2
:1003600000F058BD38B5FFF7FAFFDFF8C45604B9FE
:10037000AC6A00F0EAF920B900F030F808B900F0F2
:1003800048F8A06A08B100F007F9211D05F138000E
:1003900000F08EFC94F85000012804BF002184F87E
:1003A000501000F050FDA86D28B100F033FD00F0B2
:1003B00045FA00F048FDA86A84420ED1A96D11B13A
:1003C00000F013F831BDA86BE96C884202D100201F
:1003D000A86231BDBDE8314044E131BDE16ADFF8DA
:1003E000E40614224A4380587047286F38B15021E0
:1003F00081F31188BFF34F8FBFF36F8FFEE7DFF8F4
:10040000C8064FF080510160BFF34F8FBFF36F8F6D
:1004100070476A6D012000FA01F122EA0101696565
:10042000704710B50146002011B900F003FBFEE74C
:10043000DFF898264B6902F13804A34204D1896A97
:10044000914201D001B9012010BD38B500F080F90A
:10045000DFF8DC55A86A844219D000F0DBFC2046A6
:10046000FFF7DFFF78B100F070F900F060F9E16AA2
:10047000A86AC26A914206D3DFF84C064FF0805159
:10048000016000F0DAFABDE8314000F0DCBC31BDBB
:10049000211D142042439818704730B583B0DFF80F
:1004A0002C460FF2346104F19C0001900025009568
:1004B000002380220FF22530FFF766FE502101282D
:1004C0000ED181F3118800F0B8FA4FF0FF30E066EA
:1004D0000120A0652565BDE8374000F049BC37BD67
:1004E00010F1010FFBD181F3118800F0A6FAFEE7AD
:1004F000DFF8D805016F491C0167704770B5DFF858
:100500003065306F0024002528B9502181F311880F
:1005100000F093FAFEE700F07DFC306F401E30677C
:10052000316F002937D1F06CD8B934E0F168CC686C
:1005300000F032F800F009F9E06A716D01228240A2
:10054000114371651423DFF87C255843211D1044A5
:1005500000F0AEFBE06AB16ACA6A904224BF012093
:10056000306630680028E1D10CB100F067F9F46D15
:100570003CB100F015F808B101203066641EF8D1D6
:10058000F565306E38B1DFF840054FF08051012538
:10059000016000F052FA46E204F1180000F0ADBB31
:1005A0002DE9F843DFF88874386F0025002850D112
:1005B0003C6D641C3C6511D1F86A006828B150217B
:1005C00081F3118800F039FAFEE7F86A396BF962B5
:1005D0003863786E401C786600F030F9F86EDFF80A
:1005E000E49484424FF0140825D31AE0301D00F043
:1005F00084FBB06A18B106F1180000F07EFBF06AC7
:10060000796D012282401143796508FB00F0311DAC
:10061000484400F04DFBF06AB96ACA6A904228BFAC
:100620000125F86A006880B1F96AC868C668706810
:100630008442DBD2F866B86AC06A08FB00F159F858
:100640000100022808D3012506E04FF0FF31F966CA
:10065000F1E7F86D401CF865386E00B101252846B9
:10066000BDE8F283DFF8C813086F10B101220A66F3
:1006700070470866DFF84C34486DB0FA80F2C2F17A
:100680001F0214204243985838B9502181F3118831
:10069000BFF34F8FBFF36F8FFEE7981800F1080389
:1006A0004268526842609A4204BF526842604068A1
:1006B000C2688A62704710B50C4610B900F0BAF9EA
:1006C000FEE7DFF86C23936A03F1180100F0FCFAEF
:1006D0002046BDE81040FFE70121C3E138B5C068FE
:1006E000C46814B900F0A6F9FEE7FFF755FFDFF87C
:1006F0004053286F60B900F028F8E26A686DDFF8AF
:10070000C4330121914008436865FFF7C1FE02E050
:1007100004F11801284600F0CBFAA86AC16AE06A21
:10072000814202D20120286632BD002032BDE26A39
:10073000686DDFF890330121914008436865211D01
:1007400014204243981800F0B3BA201D00F0D5BA27
:10075000040007D1502080F31188BFF34F8FBFF3FF
:100760006F8FFEE77047DFF864134A6E0260096D11
:1007700041607047F8B504460D46502014B900F0AA
:100780005AF9FEE715B900F056F9FEE700F042FB12
:10079000DFF83803016D62682E688B1A16F1010FBD
:1007A0000ED0476ED4F800C0674501D091420BD2FD
:1007B000B34207D2F31A2B60416E2160006D606076
:1007C000002402E000202860012400F03CFB2046C9
:1007D000F2BDDFF8F81201200866704770B5DFF847
:1007E0008042DFF84C5211E000F014FB286AC66822
:1007F000301D00F082FAE86C401EE864686B401E11
:10080000686300F020FB304600F00EF8686B0028AB
:10081000EAD121680229F9D3DFF8AC224FF08050E9
:10082000106000F00AF9F1E710B50446206B00F003
:10083000DFF92046BDE8104000F0DAB9DFF8F0112A
:10084000C86A006810B94FF0FF3203E0C86AC26896
:10085000D0684268CA667047DFF87012886D08B9C0
:1008600001207047086F08B90220704700207047C8
:100870002DE9F04104460020002C35D06C4DE16A92
:10088000AA6AD36A994229D2A069002804D4A86A26
:10089000C16AC1F10701A1611427E16ADFF824826E
:1008A000606979434144884214D1FFF74EFF012625
:1008B000002801BFE16A07FB01F058F8000000289A
:1008C00000F054F8A86AC06AE0628640696D00F0E2
:1008D00045F808E0A86AC16AE16204E0616CAA6AAE
:1008E000D36A994200D20120BDE8F0812DE9F041A0
:1008F00004460021002C2ED04D4DA86A502284427F
:1009000004D082F3118800F098F8FEE7A06C00F0A4
:1009100077F8E26A636C401E9A42A0641BD0D0B99B
:10092000FFF713FF01261427DFF89881002801BF85
:10093000E16A07FB01F058F80000002800F016F803
:10094000606CE062C0F10700A061E06A696D8640FA
:1009500000F004F801210846BDE8F0810E4347434A
:100960006E65211D08EB070000F0A2B905D16A6D84
:1009700006FA01F122EA010169657047F8B5040041
:1009800036D0A06C502200F03BF8636C8B4238BF2D
:100990000B46E16A99422BD0012829D1244DA86A3F
:1009A000844204D182F3118800F047F8FEE7A06981
:1009B000DFF81061E36200285CBFC3F10703A361A5
:1009C0001427606979433144884211D1FFF7BDFE95
:1009D000002801BFE16A07FB01F03058002801D16F
:1009E000FFF717FD00F005F84743211DF0196FE0F0
:1009F000F1BD0122E06A696D82401143696570476B
:100A000030B982F31188BFF34F8FBFF36F8FFEE7CA
:100A10007047DFF8B810886A18B1886A826C521C77
:100A20008264886A704700F00EFA284670BD0000A4
:100A3000E80F0020502080F31188BFF34F8FBFF3E1
:100A40006F8F7047A96AC86AE16A884207D21E4957
:100A50004FF080500860BFF34F8FBFF36F8F704728
:100A600018110020F8B5194D2F6D0C46A96A0646DD
:100A7000081D00F042F930B9A86A696DC06A012208
:100A800082409143696516F1010F05D124B1A86A2E
:100A9000011D05F138001BE0A86AF6194660BE4248
:100AA000A86A05D2011D286BBDE8F44000F00CB91E
:100AB000011DE86A00F008F9E86E864238BFEE666C
:100AC000F1BD00001811002004ED00E0E80F002047
:100AD000BDE8F44000F0ECB849444C45000000008B
:100AE0002DE9F8430446FFF703FD684FB8684FF05F
:100AF0000008002500BB07F1180307F1180113F0E7
:100B0000070F40F6B8300A4604D0CA1DD208D200FA
:100B1000801A0818801808383A60C0087D60C00044
:100B2000B86045600560811A516010605068386196
:100B3000F8604FF0004078614FF050097869044246
:100B400033D194B3083414F0070F1FBF04F1080029
:100B500004F00704041B14F0070F02D000F041F862
:100B6000FEE714B3F868A0421FD33E6839467068A8
:100B7000A04223D2306800281CBF31460646F6D179
:100B80001CE0301D02517460084600F05AF871688C
:100B9000F868401AF8603A69904238BF386178695D
:100BA00001437160356008F00705FFF7A7FC15B138
:100BB00000F017F8FEE74046BDE8F283B8688642C9
:100BC000F3D0326808680A6000F108087268121BE6
:100BD000112ADCD3311911F00700D2D000F001F84E
:100BE000FEE789F31188BFF34F8FBFF36F8F704714
:100BF00038B5F0B1A0F10804244D61686A6950234A
:100C0000114202D100F016F8FEE7206810B100F0A2
:100C100011F8FEE791436160FFF76AFCE9686068DC
:100C20004118E960204600F00CF8BDE83140FFF7BC
:100C300065BC31BD83F31188BFF34F8FBFF36F8F56
:100C4000704730B511490A4600E01A4613688342DE
:100C5000FBD35368D418844203D14068C31853604F
:100C6000104643681468C518A54208D189688C42AB
:100C700004D06168CB184360246800E00C4604602F
:100C8000824218BF106030BD000000001804002030
:100C900000F1080141604FF0FF31816000F108016F
:100CA000C16001610021016070470021016170474E
:100CB00042684A6093688B609368596091600861EC
:100CC0000168491C0160704730B50A6812F1010FD4
:100CD00008BF036907D000F1080300E023465C6801
:100CE0002568AA42FAD25A684A6091608B605960BE
:100CF00008610168491C016030BD43680169826870
:100D00009A60836842685A604A68824204BF826877
:100D10004A60002202610868401E08600868704747
:100D20004908490010B5A0F120034FF08074996183
:100D3000DC611A600FF2110159616FF0020140F895
:100D4000241D203810BD000063494A68502012F16C
:100D5000010F06D080F31188BFF34F8FBFF36F8F61
:100D6000FEE780F31188BFF34F8FBFF36F8FFEE76D
:100D70007CB55A495A4B0A6850209A4202D100F079
:100D800082F8FEE70B68574CA34202D100F07BF8D3
:100D9000FEE7554A14780194FF2313700725137852
:100DA0004D4C8DF800309DF80030A56003F05003E5
:100DB000237006E05B1EA3609DF800305B008DF899
:100DC0000030A3689DF800502E06F3D4C3F1070548
:100DD000042D02D000F057F8FEE71B0203F4E06395
:100DE000A36001981070086A40F470000862086AF5
:100DF00040F07040086200F081F80020606000F070
:100E0000DBF83A48016841F04041016000F0C4F865
:100E1000002076BD502080F31188BFF34F8FBFF3C1
:100E20006F8F2D494A68521C012A4A600AD1304905
:100E30000A68130606D080F31188BFF34F8FBFF303
:100E40006F8FFEE770472449486838B9502080F317
:100E50001188BFF34F8FBFF36F8FFEE7401E4860CE
:100E600008BF80F31188704780B5502000F00BF860
:100E7000FFF796FB18B11E494FF080500860002123
:100E800081F3118801BD80F31188BFF34F8FBFF349
:100E90006F8F7047EFF30580502110280E4A0BD357
:100EA000144B185C1378984206D281F31188BFF373
:100EB0004F8FBFF36F8FFEE790680F4A136803F4FC
:100EC000E063984206D281F31188BFF34F8FBFF3DE
:100ED0006F8FFEE7704700000000002000ED00E08B
:100EE00071C20F4170C20F4100E400E034EF00E036
:100EF00004ED00E0F0E300E00CED00E00748002125
:100F0000016081604FF47A7305490A68B2FBF3F31C
:100F10005B1E436007210160704700BF10E000E0E6
:100F200014000020EFF30980BFF36F8F264B1A687F
:100F30001EF0100F08BF20ED108A20E9F04F10605E
:100F400009B44FF0500080F31188BFF34F8FBFF307
:100F50006F8FFFF787FB4FF0000080F3118809BC0B
:100F600019680868B0E8F04F1EF0100F08BFB0EC29
:100F7000108A80F30988BFF36F8F7047124B19688E
:100F80000868B0E8F04F80F30988BFF36F8F4FF027
:100F9000000080F3118870470C480068006880F3F7
:100FA00008884FF0000080F3148862B661B6BFF382
:100FB0004F8FBFF36F8F00DFDFF81400016841F43B
:100FC00070010160704700001010002008ED00E083
:100FD00088ED00E038B5040009D004F168056878B0
:100FE00008B900F028F800F00DF8012801D101201F
:100FF00032BD606A08B100F023F800F014F821F067
:101000002A0109E024206870206801684908490025
:101010000160204600F068B9816000F014F8BDE876
:10102000324000F00EBB2068416821F490414160DD
:1010300020688168704700212970204600F010BCAC
:10104000204600F09BBA2068016841F00101016070
:101050002046704770B5044604F150051346687E7B
:10106000202831D109B1180001D1012070BD287E9E
:10107000012829D001222A76E1642B806B80002090
:10108000E861212068762A690FF28D60D0622A69B2
:101090000FF2B16010632A690FF2F560506300200F
:1010A0002E69B063206800F12802286900F00EFD67
:1010B000216840200862002028762068816841F07D
:1010C00080018160002070BD022070BD38B50446EB
:1010D00004F158051346A87C202838D109B118001E
:1010E00001D1012032BD287C012830D001222A7490
:1010F00061652B80002068612220A874EA680FF2E5
:101100004D60D062EA680FF281601063EA680FF206
:10111000816050630020EA6890630A46206800F10D
:101120002401E86800F0D2FC0020287420680168DF
:1011300041F4807101602068816841F001018160A3
:101140002068816841F040018160002032BD0220AA
:1011500032BDF8B504462168CA690B6812F00F0069
:1011600007D1950605D59D0603D52046BDE8F2407A
:101170003EE38E6800281CBF40F20110064204F1D5
:10118000640562D0D70707D5D80505D501200862C8
:10119000A86840F00100A860900708D5F00706D5C0
:1011A000216802200862A86840F00400A860500787
:1011B00008D5F00706D5216804200862A86840F029
:1011C0000200A86010070AD5980601D4F00706D5DA
:1011D000216808200862A86840F00800A860A86894
:1011E000002831D0910604D5980644BF204600F06F
:1011F000FFFAA868010703D42168886841061ED554
:10120000204600F07AFA206881684A0612D5816883
:1012100021F040018160286860B10FF2C5518163FF
:10122000286800F088FC00285DD02868816BBDE844
:10123000F44008472046BDE8F24000F08DBD20464E
:1012400000F08AFD0020A860F1BD8868D6020CD5A8
:1012500040020AD54FF48010086220206871A871FE
:101260002046BDE8F24000F07BBD10062CD51806E4
:101270002AD56A79212A36D1B4F8520048B90A68C9
:1012800022F080020A602068016841F0400101609C
:10129000F1BDA268B2F5805F04BF2069002808D1C3
:1012A000E26C1088C0F308000885E06C811CE164E2
:1012B00004E0E06C421CE26400780885B4F8520057
:1012C000411EA4F85210F1BD50060CD558060AD59F
:1012D000086820F040000860202169712046BDE8C0
:1012E000F24000F0AEBDF1BDF8B5054697482B6859
:1012F000974F1968DFF85CC20140A868014328696C
:10130000014368690143E86901431960102659687F
:10131000E86821F440510143596000220024A86983
:10132000BB421CBF296A0843996821F43061084315
:1013300098606345884889491FD1096801F0030115
:1013400003294AD8DFE801F0023827480126E96975
:10135000B1F5004F40F0CF8066B1012E00F0A980BA
:10136000022E00F0A980042E00F0AB80082E00F0C1
:10137000B180B6E001F0D4F8A5E0DFF8E4C1634540
:101380000BD1096811F00C015FD0042914D0082991
:1013900001D00C290EE002261FE0DFF8C8C163452A
:1013A0000CD1096811F030014FD0102904D0202948
:1013B000F1D0302910D010E004260EE0DFF8A8C1EB
:1013C000634522D1096811F0C0013ED04029F3D015
:1013D0008029E0D0C02900D10826BB42B7D1310016
:1013E00006D0022E08D0042E31D0082E32D0AAE02A
:1013F00001F096F800285BD06A6802EB420188424F
:1014000002D31103814228D29DE0DFF860C1634519
:101410000CD1096811F4407117D0B1F5807FCBD0A1
:10142000B1F5007FB7D0B1F5407FC3E7BB42D4D15F
:10143000096811F4406108D0B1F5806FBCD0B1F5F6
:10144000006FA8D0B1F5406FB4E70026C5E701F002
:101450000DF8CFE74FF40040CEE736B1022E07D0AB
:10146000042E0BD0082E15D01AE001F059F807E031
:1014700000213F4E16EB5200494107E000F0F6FF15
:101480006A68010E560816EB00206141002301F046
:10149000CBF806E0500800F50000B0FBF2F000E0E9
:1014A0000124A0F54071334A91424CD22A68D060A1
:1014B0004AE001F03DF806E069682F4800EB510072
:1014C0000CE000F0D3FF69684A0802EB4002B2FB6F
:1014D000F1F207E06968480800F58030B0FBF1F2EE
:1014E00000E001244FF6F0711140C2F342000143C5
:1014F0002868C16028E046B1012E09D0022E0AD02A
:10150000042E0CD0082E15D01DE001F009F808E0DB
:1015100001F00EF805E0696800EB51000EE000F004
:10152000A5FF696800EB5100B0FBF1F0296880B2BB
:10153000C86009E06968480800F50040B0FBF1F0B8
:1015400080B2D86000E001242046F2BDF369FFEFCD
:1015500000800040003801400024F4008810024060
:101560000044004000480040004C00400050004053
:10157000000024F400FD0F000048E80190F824105A
:10158000CA0706D502685368816A23F400330B4307
:10159000536090F824108A0706D502685368C16A20
:1015A00023F480330B43536090F824104A0706D588
:1015B00002685368016B23F480230B43536090F857
:1015C00024100A0706D502685368416B23F40043D0
:1015D0000B43536090F82410CA0606D5026893683E
:1015E000816B23F480530B43936090F824108A0698
:1015F00006D502689368C16B23F400530B439360D4
:1016000090F824104A0610D502685368016C23F440
:1016100080130B435360016CB1F5801F05D15368F3
:10162000416C23F4C0030B43536090F824100A0666
:1016300006D502685168806C21F400210143516095
:101640007047F8B5044604F16805002068606FF043
:101650007E4701F061F80646206801680A0708D550
:101660000097334600224FF40011204600F016F890
:1016700060B9206801684A070AD5009733460022FE
:101680004FF48001204600F009F808B10320F2BDB4
:1016900020206870A87000202870F2BD2DE9F0416C
:1016A000069C05460E4690461F462868C169314093
:1016B000B1420CBF0120002040451BD114F1010FA5
:1016C000F3D024B101F028F8C01B8442EDD2286881
:1016D000016821F4D07101602868816849084900D7
:1016E000816005F168002021417081700021017046
:1016F000032000E00020BDE8F081202180F86A107E
:1017000001680A6822F490720A60006881684908DA
:101710004900816070470000816A00680268930692
:1017200044BF084600F08DBB0020A1F852000868B5
:10173000816821F080018160026842F0400202600D
:1017400070470000806A00F0EDBF0000816A006809
:101750000268930614D401F15A00002202800A683C
:10176000136823F4807313600A6893685B085B0056
:1017700093600A68936823F0400393602022027408
:10178000084600F05ABB0000806A00F0CCBF0000A1
:1017900010B5846A04F15200002101810180C17DED
:1017A000212909D121688A68130605D52023C3752C
:1017B0000A6822F0C0020A60007E222806D1216851
:1017C0008868410644BF2046FFF797FFE06E40F06F
:1017D0001000E0662046BDE8104000F0BDBA0000F1
:1017E000806A00F1520100220A810A8000F0B4BA36
:1017F00038B500F15A0201685388147C222C28D194
:101800008C8C8568B5F5805F04BF0169002906D11D
:101810002340446D2380416D8B1C436504E0416D82
:101820004D1C456523400B701188491E118089B2FB
:1018300069B901680B6823F490730B6001688B68C9
:101840005B085B008B602021117400F0F6FA002029
:1018500032BD088B40F008000883022032BD000032
:1018600070B504466448654D654E86B0416841F0E8
:1018700008014160022200F074F8416841F008015B
:10188000416000F06EF8016941F4003101610169C5
:1018900001F4003100910099016841F001010160FB
:1018A0002021006800F001000090009801910120C3
:1018B00003900321072004910590029201A9284674
:1018C00000F032FF4020072101900591284601A930
:1018D00000F02AFF4B4D05F1140030601020B0607D
:1018E0000020F0608020306100207061B061F06104
:1018F000306202207060304600F088F800202666D2
:1019000030657065B4628020B065B5640020F06514
:10191000306670664FF40050B0660220F06406F145
:10192000480000F073F806F1480060663467012251
:101930000A21112001F004F8112001F01EF8002204
:101940000A21102000F0FCFF102001F016F80122FF
:101950000A21262000F0F4FF262001F00EF806B040
:1019600070BD416801F0080100910099704780B591
:101970002548816841F001018160816801F0010121
:1019800000910099016841F080510160006800F009
:10199000805000900098032000F0C5FF0022002135
:1019A0006FF00B0000F0CCFF002200216FF00A0066
:1019B00000F0C6FF002200216FF0090000F0C0FF18
:1019C000002200216FF0040000F0BAFF0022002185
:1019D0006FF0030000F0B4FF00220F216FF0010050
:1019E00000F0AEFFBDE8084000220F214FF0FF30AD
:1019F00000F0A6BF0000000048100240000C0048A4
:101A0000881000206C0002405810024070B508B9E0
:101A1000012070BD03682649264C8B4200F1240248
:101A200005D2254900F03EF81562D46105E023494E
:101A300000F038F822491562D161022151701D6809
:101A400081686FF30D150D43C1680D4301690D43A6
:101A500041690D4381690D43C1690D43016A0D431D
:101A60001D608168B1F5804F11D0D1690F23A1426B
:101A70000CBF144C144C2568116A8B4025EA0303F3
:101A8000236021684368106A834019432160002065
:101A90009060D06010615061906101205070002012
:101AA000107070BDCD181426B5FBF6F5AD0070476B
:101AB0000804024000000240F8FFFDBFF8FBFDBF34
:101AC00000040240A8000240A8040240F8B5044601
:101AD00004F1240600253078012801D10220F2BD4E
:101AE000012737707078012821D102277770B561FE
:101AF000206807687F087F000760204600F09DF897
:101B00002168F06820B10A6842F00E020A6008E01D
:101B1000086820F0040008602068016841F00A01AC
:101B200001602068026842F00102026001E0357045
:101B300002252846F2BD70B500F124020024517838
:101B4000022903D004209061012416E001680B688B
:101B500023F00E030B60012601680D686D086D000F
:101B60000D60D3695D68116A8E4035435D60012167
:101B700051701470516901B18847204670BDF8B5A5
:101B800000F124020423D1690C6801680D68166A0B
:101B900003FA06F73C420FD06F070DD50C68A50677
:101BA00003D40D6825F004050D6000F036F8D16807
:101BB00091B3BDE8F4400847022303FA06F73C421C
:101BC00013D0AF0711D50C68A50605D40D6825F014
:101BD0000A050D600121517000F01FF800211170FD
:101BE0009168C9B1BDE8F4400847082303FA06F636
:101BF000344211D02B070FD50B6823F00E030B6076
:101C0000012500F011F891615170002111701169E6
:101C100011B1BDE8F4400847F1BDD4696568116AA7
:101C20008B402B4363607047D3695C68116A8D40B9
:101C30002C435C60012170470000F0B5056C6E68B4
:101C4000446C0127A7403E436E600468636080686F
:101C5000102802D1A260E160F0BDA160E260F0BD99
:101C600010B500F0C1FE00F029F8012000F0CEFE12
:101C7000002000F0CBFE032200210120344C00F0B4
:101C800045FF206003220021012000F03FFF60603B
:101C900000220A210A2000F039FFA06001F0F8F8C4
:101CA000E06001F075F900F05DF801F0E5F9012060
:101CB00000F0E0FE002000F0DDFEFEE700B50121AF
:101CC00097B010200B91059060210D9100200C9091
:101CD00001211091119102200F90282112910720CB
:101CE000139002211491159105A800F017F900B185
:101CF000FEE70F2100910320002101900291039142
:101D000004916846042100F00CFB00B1FEE74FF49B
:101D1000007001F0DDF900B1FEE700F0FEFB4FF4CA
:101D20007A71B0FBF1F000F032FE042000F043FEC7
:101D300000220F214FF0FF3000F002FE17B000BD6F
:101D400000680449884208BF01F0FAB970470000F2
:101D500050120020002C0140012000F08BBEFEE755
:101D60007047000000B585B068460FF29C11142240
:101D700001F0FEF90021684601F083F93B49086053
:101D8000FEF7F0FA05B000BD2DE9FE4F0FF26C141E
:101D9000374D384E0FF25818374F0FF2F809DFF869
:101DA000DCA0DFF8DCB00A2259465046FFF78EF976
:101DB00010B1392100F039F8324A106800F039F8D2
:101DC000386810B398E80D00694681E80D00306866
:101DD00000234FF0FF32594600F0BFFE012802D029
:101DE000452100F022F8306801F052F838600622F0
:101DF00069465046FFF72EF910B14A2100F015F858
:101E000000F016F838680028CDD194E80D00694636
:101E100081E80D0006225046FFF71CF910B157214A
:101E200000F003F800F004F8BDE74846FFF797BF5D
:101E300028684FF0FF3100F070BF10B5124C114A06
:101E400002E010B5114C0A4A0020206021461068BB
:101E500000F01DFF206838B10D4A4FF0805111602D
:101E6000BFF34F8FBFF36F8F10BD00006C120020C7
:101E700054120020581200205C120020A4110020EF
:101E80006012002050120020781200207C120020E6
:101E900004ED00E0433A5C55736572735C62616304
:101EA000656D2E6B61616269615C4465736B746F13
:101EB000705C31345F31315F323031385C365F46CF
:101EC00072656552746F735F53656E64696E675FA8
:101ED000746F5F515C5372635C554152545F52653D
:101EE00063656976655F5461736B2E630000000063
:101EF000766964650D0A00000000000066756C6C70
:101F00000D0A000000000000F8360008891D0008D6
:101F10000000000000000000800000002DE9F843F0
:101F20000646DFF8D4763078DFF8C446C10626D5F9
:101F3000A06810F00C0F3BD12168880702D5B0696A
:101F4000002833D0216808074EBF21687968090945
:101F5000306A01F0F001814206D200F00EFB002849
:101F600024D100F0CCF905E000F0C9F9306A00F0A6
:101F700004FBD8B900F07AFAA26800F06DFA307864
:101F8000C10764D500F0B7F9082808D000F0B3F90C
:101F90000C2802BFE06800F0030003282CD1216860
:101FA000880354D57068002840F0F0800120A0E13B
:101FB000B06988B1216841F00101216000F0ACFBFB
:101FC00005462068810700F1DE8000F0A5FB401B7C
:101FD0000328F6D303208CE12068400840002060ED
:101FE00000F09AFB054621688807C8D500F094FBED
:101FF000401B0328F7D3EDE77068B0F5803F06D0AB
:10200000B0F5A02F216807D141F48021216020681C
:1020100040F48030206006E021F4803121602268A5
:1020200022F480222260706860B100F075FB0546E2
:102030002168880300F1AA8000F06EFB401B652830
:10204000F6D3C7E700F068FB05462068810340F13E
:102050009D8000F061FB401B6528F6D3BAE700F0D5
:102060005BFB401B0328C0F0BD80B3E7F06880B184
:10207000216841F48071216000F04EFB0546206824
:10208000410500F1DF8000F047FB401B0328F6D339
:10209000A0E7206820F48070206000F03DFB05463A
:1020A0002168480574D500F037FB401B0328F7D39F
:1020B00090E7786840084000786000F02DFB054606
:1020C0007868810740F1928000F026FB401B0328CE
:1020D000F6D37FE70528386806D140F00400386061
:1020E000396841F0010105E0400840003860396876
:1020F00021F004013960B06841F2893960B100F023
:102100000BFB05463968880700F1AD8000F004FB41
:10211000401B4845F6D35DE700F0FEFA05463868F7
:10212000810740F1A08000F0F7FA401B4845F6D344
:1021300050E700F0F1FA401B0328C0F0AD8049E7FA
:1021400000F0EAFA401B0328C0F0CE8042E7216885
:10215000080106D42068810003D4E068800880006C
:10216000E060E168DFF894040140E16000F0D4FA37
:1021700005462068810140F1BB8000F0CDFA401B8C
:102180000328F6D326E700F0BAF8F8E6307881079E
:102190001AD500F0B0F8042809D000F0ACF80C28EB
:1021A00002BFE06800F0030002287FF45FAF2168FF
:1021B000480502D5F068002862D06168306921F0D6
:1021C000F85141EA00616160317808070ED5706905
:1021D00000283FF46EAF796841F00101796000F0AA
:1021E0009BFA0546786881077FF539AF3178480753
:1021F00040D5A06DC1004FF000080AD4A06D40F09A
:102200008050A0654FF00108A06D00F08050009054
:102210000098DFF8EC93D9F80010C8051AD4D9F863
:10222000000040F48070C9F8000000F075FA05461F
:10223000D9F80010C8050DD400F06EFA401B032831
:10224000F6D3C7E66068316920F0F85040EA0160D3
:102250006060B9E7B06801287FF43CAF386840F0AF
:102260000100386047E7B8F1000F03D0A06D20F0FF
:102270008050A065B06AD8B3A16801F00C010C29A8
:102280003FF494AE0228206820F0807020607FF434
:102290005EAF00F041FA0546216888013FF549AF7D
:1022A000306B716B401E090241EA0011B06B0009EE
:1022B00041EA4041F06A0143F06B801E0005400D89
:1022C00041EA4051306C801E000600F07E40014320
:1022D000E160206840F080702060E16841F080712A
:1022E000E16000F019FA0546206881017FF528AF0A
:1022F0000020BDE8F283A06800F00C007047206861
:1023000040F0080020602168306A21F0F0010143AC
:1023100021606068F16920F47F4040EA012060603C
:1023200070472DE9F843DFF8DC72064638688846C6
:1023300000F00700404502D200F084F875D13178F2
:10234000DFF8AC52880705D5A968B06821F0F00124
:102350000143A9603078C1075FD57068022802D1B7
:1023600029688A0307E0032802D129688A0102E06C
:1023700018B929688A0703D457E02A68510554D54B
:10238000A968890840EA8100A86041F2893900F013
:10239000C3F90446706802280BD1A86800F00C004D
:1023A00008283AD000F0B8F9001B4845F5D30320BF
:1023B00031E003280AD1A86800F00C000C282CD0CA
:1023C00000F0AAF9001B4845F5D3F0E700282ED10C
:1023D000A86810F00C0F20D000F09EF9001B4845B3
:1023E000F6D3E4E73078410705D5A968F06821F411
:1023F000E0610143A9603078010706D5A86831691A
:1024000020F4605040EAC100A86000F02FF8AA68EC
:1024100000F022F80020BDE8F283386800F00700E1
:102420008045DFD200F00EF8DCD00120F3E7A86889
:1024300000F00C000428F0D000F06EF9001B4845B5
:10244000F5D3B4E73968C90848EAC101396038688A
:1024500000F00700404570476B49C2F30312895CE6
:10246000644AC8401060002000F0C6BE60498B6816
:102470000022002013F00C0F09D08B6803F00C032E
:102480000C2B02BFCB6803F00303012B13D10A68A6
:10249000130704D45E4A1368C3F3032202E00A68F8
:1024A000C2F303125B4B53F822208B6813F00C0F1E
:1024B0000ED110460CE08B6803F00C03042B08BF10
:1024C000554805D08B6803F00C03082B08BF534810
:1024D0008B6803F00C030C2B1ED1C868CB68C3F3C8
:1024E00002135B1C00F00300022802D0032802D074
:1024F00005E0494800E04948B0FBF3F201E0B2FBD7
:10250000F3F2C868C0F306204243C868C0F34160D4
:10251000401C4000B2FBF0F070473648006870473E
:1025200034483A4A006813683D49C3F3022206E082
:102530003048364A006813683949C3F3C222895CBF
:10254000C840704710B50F220260304A136803F08C
:1025500003034360146804F0F0048460136803F418
:10256000E063C3601268D20802F4E06202612548A9
:10257000026802F007020A6010BD70B5294E82B0F1
:10258000054630680024C10002D500F09BFD0EE036
:10259000306840F080503060316801F08051009127
:1025A000009800F08FFD316821F080513160B0F566
:1025B000007F04D1802D0CD9A12D09D304E0802DFA
:1025C00088BF032405D801D1022402E0702D00D178
:1025D00001240C480168C90844EAC101016000688F
:1025E00000F00700A04201D0012076BD002076BD9A
:1025F000001002401400002090100240FFFFEEFE89
:1026000000700040002002403035000808100240F1
:1026100094100240403500080024F40000127A00B3
:1026200010370008581002401B4213D1094236D11E
:102630002AB18446B0FBF2F002FB10C2704700F0F2
:1026400017BEFCD30022002370470B0002000021BC
:1026500000207047904271EB030CF6D370B5B1FACD
:1026600081F4B3FA83F52C1BA340C4F1200532FAA0
:1026700005F63343A2405FF00046E64002E05B0807
:102680005FEA3202841A71EB030524BF2046294613
:102690007641F4D302000B003000002170BD012A06
:1026A000CFD970B5140C20D0B1FA81F4B2FA82F50A
:1026B000C4F120046419B4F12006D6D3B2405FF00F
:1026C0000044F440002502E052085FEA3303C61AD2
:1026D00071EB020E24BF3046714664416D41F3D365
:1026E00002000B002000290070BD0C46B1FBF2F186
:1026F00002FB11452D0445EA1045B5FBF2F402FB3F
:10270000145580B240EA0545B5FBF2F002FB1052C9
:1027100040EA044070BD000001480068704700BFF7
:1027200070120020704770472DE9F84F4FF00008F5
:102730006D4CDFF8B891DFF8B8A14FF00F0B86466B
:102740000B4627E06B4DAE4514BF07250625954087
:10275000354349F82150C14322685D680A40ED03C2
:1027600048BF0243226062685D680A40AD0348BF0B
:1027700002436260A2685D680A40ED0248BF0243FE
:10278000A260E2680A405968890248BF0243E260D9
:1027900008F101081A6832FA08F000F09D80012162
:1027A00001FA08F111EA0200F2D05D68022D18BFAB
:1027B000122D4FEA880210D14FEAD8050EEB850C96
:1027C00002F01C05DCF820600BFA05F7BE431F6918
:1027D00007FA05F53543CCF820504FEA480C03259D
:1027E000DEF800701E7905FA0CF5ED4306F00306DD
:1027F0002F4006FA0CF63E43CEF80060C9435E68EF
:10280000012E18BF022E03D0112E18BF122E13D185
:10281000DEF80870DE682F4006FA0CF63E43CEF86C
:102820000860DEF804605F68C7F300170E4007FA1F
:1028300008F73743CEF804705E6806F00307032FED
:1028400009D1DEF82C700F40C6F3C00101FA08F17F
:102850000F43CEF82C70DEF80C1029409D6805FA65
:102860000CF52943CEF80C105968C90090D5DAF858
:10287000001041F00101CAF8001002F00C02DAF871
:10288000001001F0010100910BFA02F600994FEAE5
:10289000980159F8215025EA0606BEF1904F08BF6D
:1028A000002518D0144DAE4508BF012513D0134D97
:1028B000AE4508BF02250ED0114DAE4508BF032519
:1028C00009D0104DAE4508BF042504D00E4DAE45CD
:1028D0007FF438AF05253AE7BDE8F18F0AB1816191
:1028E0007047816270470000000401400800014009
:1028F000601002400018004800040048000800482A
:10290000000C00480010004800140048090100288D
:1029100006D52F4A00F00F00104400F8041C704741
:102920002C4A115470472C4A13684FF6FF010002DD
:102930000B4000F4E06018432849084310607047DA
:1029400038B5254B1C68C4F30223C3F10704052CDA
:1029500028BF04241D1D072D34BF0023DB1E0125C5
:1029600005FA04F4641E2140994005FA03F35B1E46
:102970001A401143BDE83440C8E7012200F01F01AE
:10298000174BFFE78A40400943F82020704710B5F5
:10299000401EB0F1807F01D3012010BD114C60605A
:1029A0000F214FF0FF30FFF7B1FF0022A260072098
:1029B0002060002010BD04280A4904D1086840F0B6
:1029C0000400086070470A6822F004020A60704739
:1029D00018ED00E000E400E00CED00E00000FA0576
:1029E00000E100E010E000E080B50748016841F434
:1029F000807101600320FFF796FF002000F0FCFBD0
:102A0000FEF7B5FF002002BD0020024030B587B0C0
:102A10000446DFF8781038B9086840F00200086012
:102A2000096801F0020108E0012C08D1086840F0B3
:102A300010000860096801F01001009100980FF281
:102A40005400DFF84C5030F814000190012102913D
:102A5000002003900321049101A955F82400FFF7F9
:102A600063FE019955F82400002289B2FFF736FF72
:102A700007B030BD0FF21C01DFF8143031F8101030
:102A800053F820000122FFF729BF00004C1002403C
:102A90000C0000200400000138B504000D4602D1EE
:102AA00000F0EEF9FEE7FEF7B5F9E26B206C216865
:102AB0004243881860600020A0632068E26BA06039
:102AC000521E206C216842438818E0604FF0FF31AD
:102AD00004F144000170417065B9206990B100F0C3
:102AE000CBF978B1DFF8A4144FF08050086000F003
:102AF000BEF907E004F11000FEF7CAF804F1240063
:102B0000FEF7C6F8FEF79FF9012032BDF8B50600C2
:102B10000D46174602D100F0B3F9FEE7002D0EBFB7
:102B2000482005FB06F04830FDF7DAFF040007D027
:102B300000943B4604F148022946304600F002F872
:102B40002046F2BD82B0029B01B91A461A60D863D2
:102B500019641846012102B09EE72DE9F44783B0BD
:102B600006468A461F460024502526B985F311885B
:102B700000F07DF9FEE7BAF1000F01D1306C70B9B9
:102B8000022F02D1F06B01280ED1FDF765FEF0B9DE
:102B90000398E0B185F3118800F069F9FEE785F349
:102BA000118800F064F9FEE785F3118800F05FF901
:102BB000FEE7039906F11000FDF77DFD00F0ABF88C
:102BC000FDF79CFC18B9C8F8009000F050F9FEF72A
:102BD00021F9B06BF16BDFF8B48388424FF0805974
:102BE0003AD3022F38D00398002832D014B900F01D
:102BF00039F90124FEF727F9FDF77AFCFEF70AF907
:102C000000F01FF904BF0022027000F021F904BF98
:102C100000224270FEF717F900F035F858BBFEF7B6
:102C2000F9F8B06BF16B884214BF00250125FEF75F
:102C30000AF9002DBDD100F06EF8FDF75FFCC6E784
:102C400018B1C8F8009000F012F9FEF7FCF8012066
:102C500016E0FEF7F8F812E03A465146304600F02A
:102C600026F9716A0029EBD006F12400FDF736FD44
:102C70000028E6D1E9E700F04EF8FDF73FFC002020
:102C800004B0BDE8F08703A96846FDF773BDF8B549
:102C900004460D46502714B900F0E7F8FEE7206C13
:102CA00010B100F0E2F8FEE7216809B96068C0B928
:102CB000FEF7F0F8EFF3118600F023F819D294F93B
:102CC0004510401C11F1010FA0630DD1606A70B175
:102CD00000F013F8002818BF002D08D0012028604C
:102CE00005E000F0C2F8FEE7491C84F84510012019
:102CF00000E0002086F31188F2BD04F12400FDF706
:102D0000EDBC87F31188BFF34F8FBFF36F8FA06BBC
:102D1000E16B884270473046FDE02DE9F24382B016
:102D2000064600240025502716B900F09EF8FEE75D
:102D3000306C10B100F099F8FEE7FDF78DFD40B959
:102D4000029830B100F091F8FEE7FFF7E4FFFDF7DD
:102D5000D5FBFEF75FF8B06BDFF830824FF080599B
:102D600028B90298D0B9C5B100F07FF8FEE7401E3F
:102D7000B063306810B9FDF74CFE7060306940B147
:102D800006F11000FDF7AAFC18B1C8F8009000F099
:102D90006EF8FEF758F8012051E04DE014B900F04C
:102DA00061F80124FEF74FF8FDF7A2FBFEF732F8B9
:102DB00000F047F804BF0022027000F049F804BF99
:102DC00000224270FEF73FF802A9FFF75DFF0028DE
:102DD00030461AD100F0CFF80028B6D0306838B9A4
:102DE000FEF718F87068FDF743FD0546FEF72BF86F
:102DF00000F033F8FFF78FFFFDF780FB0028A8D124
:102E0000C8F8009000F033F8A3E700F084F8FDF76D
:102E100075FB304600F0AFF800289AD075B1FDF789
:102E2000F9FF706A00281DBF306B0168C1F107010E
:102E300000217068FDF7A2FDFEF705F80020BDE84F
:102E4000FE8306F1440090F9001011F1010F704764
:102E500090F9011011F1010F7047029906F1240059
:102E6000FDF729BC6846FDF77EBC87F31188BFF3E8
:102E70004F8FBFF36F8F704704F11000FDF72EBC2A
:102E8000502080F31188BFF34F8FBFF36F8F7047CF
:102E900010B5040002D1FFF7F3FFFEE7FDF7BAFF1C
:102EA000E06BA46B041BFDF7CEFF204610BDF8B508
:102EB00006461546B46B326C002742B9316831BB07
:102EC0007068FDF713FD0021074671601FE065B9CA
:102ED000B06800F03DF9B068316C08447168B060CA
:102EE000884214D33068B06011E0F06800F030F927
:102EF000306CF16840420144F1603268914202D284
:102F000071680844F060022D01D104B1641E641C94
:102F1000B4633846F2BD70B50446FDF77BFF04F19B
:102F2000440595F9016076B2012E11DB606A78B133
:102F3000FFF7E3FE08B1FDF74CFC761EF3E72069CE
:102F400090B1FFF799FF08B1FDF743FC761E08E04A
:102F50004FF0FF306870FDF776FFFDF75BFF95F9E6
:102F6000006076B2012EEADA4FF0FF302870BDE83B
:102F70007040FDF768BF10B50446FDF74BFFA06B2E
:102F8000441EA441FDF75FFFE00F10BD04ED00E01B
:102F900000B585B068460FF2C001142200F0E8F8D1
:102FA0000021684600F06DF81149086005B000BDC9
:102FB00080B51048104901604FF41651416000215E
:102FC0008160C160016181610C214161FEF702F8FD
:102FD00020B142210FF22800FEF7C1FE0748006829
:102FE000FDF733FA02490868BDE80240FDF783B9EE
:102FF00074120020A4110020004400406C12002034
:10300000433A5C55736572735C626163656D2E6BE8
:1030100061616269615C4465736B746F705C3134CB
:103020005F31315F323031385C365F4672656552F0
:10303000746F735F53656E64696E675F746F5F5121
:103040005C5372635C554152545F436F6E666967AF
:103050005F5461736B2E6300EC360008B12F0008DB
:103060000000000000000000800000000146002079
:10307000842918BFC81C704780B5FDF70EFA0020E0
:1030800002BD3EB504460D46B4F90800FFF7EEFF59
:1030900002A9019100902B4622692168606892B2D2
:1030A000FDF772F8012801D000203EBD02983EBD18
:1030B00080B5FDF7D1FB012803D0BDE80140FDF745
:1030C000D3BE01BDDFF86C00006800F4C06070473B
:1030D00010B5DFF86020B0F5007F106800F4C06024
:1030E00018D1B0F5007F1ED01168DFF84C00DFF872
:1030F0004C4021F4C06141F4007111603221036839
:10310000B3FBF4F0484380B151694B0548BF401E02
:10311000F9D40AE0B0F5806F05D0116821F4C061E0
:1031200041F480611160002010BD50694105FAD55D
:10313000032010BD007000401400002040420F002A
:1031400002480168491C0160704700BF70120020EE
:1031500062B38B0708D0521E11F8013B00F8013B07
:1031600000F024808B07F6D1830740F0208000BF59
:10317000103A07D330B4B1E83810103AA0E838104C
:10318000F9D230BC530724BFB1E80810A0E80810FA
:1031900044BF51F8043B40F8043BD20724BF31F848
:1031A000022B20F8022B44BF0B7803707047121FCC
:1031B00017D35B0009D151F8043B20F8023B1B0CEC
:1031C000121F20F8023BF6D20BE051F8043B00F846
:1031D000013B1B0A20F8023B1B0C121F00F8013BAD
:1031E000F3D238BF121D521E24BF11F8013B00F864
:1031F000013BF8D87047000010B5014688B00022A6
:103200001920FFF79DFB1920FFF7B7FB1448154C59
:10321000016841F40061016001A9006800F40060E8
:103220000090009802A8FFF78DF9FFF781F90E4989
:103230002160002240F2E731E1602261A2600B4987
:10324000B0FBF1F0401E6060204600F013F818B9A2
:10325000204600F01CF800E0012008B010BD00007E
:103260006010024014120020002C014040420F0068
:103270007047000038B5040001D1012032BD00F0D4
:103280001FF818B900F018F800F024F90AE00068F7
:10329000C16841F00101C160026842F001020260B0
:1032A0000020704702206870211D206800F0B0F8EF
:1032B00001206870002032BD00212970204670472F
:1032C00004F138056878704710B504462068016934
:1032D0008A0715D5C1688A0712D56FF0020202610C
:1032E00001212176806910F0030F204602D000F002
:1032F000F2F803E000F0F0F800F087F80020207604
:10330000206801694A0715D5C1684A0712D56FF0D0
:103310000402026102212176806910F4407F204678
:1033200002D000F0D8F803E000F0D6F800F06DF815
:1033300000202076206801690A0715D5C1680A07B0
:1033400012D56FF00802026104212176C06910F0E5
:10335000030F204602D000F0BEF803E000F0BCF8F6
:1033600000F053F80020207620680169CA0615D5C0
:10337000C168CA0612D56FF01002026108212176D9
:10338000C06910F4407F204602D000F0A4F803E0AA
:1033900000F0A2F800F039F80020207620680169DA
:1033A000CA0708D5C168CA0705D56FF001020261D6
:1033B0002046FEF7C5FC206801690A0608D5C168E9
:1033C0000A0605D56FF080020261204600F085F8FC
:1033D000206801694A0608D5C1684A0605D56FF01C
:1033E00040020261204600F079F8206801698A06EF
:1033F0000AD5C1688A0607D56FF02002026120460F
:10340000BDE8104000F06BB810BD204600F068B871
:103410002DE9F043DFF89C70D0F800C0DFF8983059
:10342000DFF89840DFF89850DFF89860DFF898E010
:10343000DFF89880DFF89890B84218BFB0F1804F5D
:1034400007D0484518BF404503D0704518BFB0426B
:103450000ED14A68B8422CF0700C18BFB0F1804F02
:1034600042EA0C0C0CD048451CBF4045704507D0C3
:10347000B04218BFA84203D0A04218BF984204D15E
:10348000CA682CF4407C42EA0C0CC0F800C0B84278
:103490008A68C26218BFB0420A68826204D0A84239
:1034A0001CBFA042984201D1096901630121416119
:1034B000BDE8F083002C0140004801400044014079
:1034C0000040014000340140000C00400008004072
:1034D000000400407047704770477047704770475E
:1034E000704700000E48016841F47001016000223D
:1034F0000C49086840F0010008608A600A480A68C0
:1035000002400A604FF48050C8600022086820F42E
:10351000802008608A614FF00060044908607047AD
:1035200088ED00E000100240FFFFF6EA08ED00E041
:103530000000000000000000010203040607080963
:10354000A0860100400D0300801A060000350C0023
:1035500040420F0080841E0000093D0000127A00E6
:103560000024F40000366E010048E801006CDC0223
:1035700019E050F8042BD30744BFA9F101039A18AE
:10358000091F0023042942F8043BF9D25FEA817C39
:10359000134604D54FF0000CA2F800C09B1CC907CD
:1035A00044BF0021197050F8041B0029E1D1704775
:1035B0007047FEE7FEE7FEE7FEE77047FFF778BDDE
:1035C0000648FFF781BE0648406EFEF7D8BA0448A9
:1035D000006EFEF7D4BA0248FDF7BBBD14120020FE
:1035E000A411002010B450F8041B79B1026843689C
:1035F00002440830DC0744BFA9F10104E31852F883
:10360000044B43F8044B091FF9D1ECE710BC704799
:1036100010B5074979441831064C7C44163404E04F
:103620000A68081D114488470146A142F8D110BD1F
:103630002C0000004C0000004EF68851CEF2000134
:10364000086840F470000860BFF34F8FBFF36F8FBE
:103650004FF00070E1EE100A7047000015FFFFFF09
:10366000680E0000180400200000000079FFFFFF32
:1036700018000000500000000000002000000000C2
:1036800000F00BF8002801D0FFF7C2FF0020AFF3D5
:103690000080FEF7E5FA00F002F80120704700F024
:1036A00001B800000746384600F002F8FBE70000CA
:1036B00080B5AFF30080024A11001820ABBEFBE7D3
:1036C0002600020000000000AAAAAAAA000000002A
:1036D000000400480010004800093D0001488047F0
:1036E00001480047E534000805370008436F6E665F
:1036F00069675F5461736B006D795461736B30312E
:1037000000000000AFF30080FFF796FFFFF7B8FF5F
:103710000000000001020304FFF7FEBFFFF7FEBF39
:10372000FFF7FEBFFFF7FEBFFFF7FEBFFFF7FEBFCD
:10373000FFF7FEBFFFF7FEBFFFF7FEBFFFF7FEBFBD
:10374000FFF7FEBFFFF7FEBFFFF7FEBFFFF7FEBFAD
:10375000FFF7FEBFFFF7FEBFFFF7FEBFFFF7FEBF9D
:10376000FFF7FEBFFFF7FEBFFFF7FEBFFFF7FEBF8D
:10377000FFF7FEBFFFF7FEBFFFF7FEBFFFF7FEBF7D
:10378000FFF7FEBFFFF7FEBFFFF7FEBFFFF7FEBF6D
:10379000FFF7FEBFFFF7FEBFFFF7FEBFFFF7FEBF5D
:1037A000FFF7FEBFFFF7FEBFFFF7FEBFFFF7FEBF4D
:1037B000FFF7FEBFFFF7FEBFFFF7FEBFFFF7FEBF3D
:1037C000FFF7FEBFFFF7FEBFFFF7FEBFFFF7FEBF2D
:1037D000FFF7FEBFFFF7FEBFFFF7FEBFFFF7FEBF1D
:1037E000FFF7FEBFFFF7FEBFFFF7FEBFFFF7FEBF0D
:1037F000FFF7FEBFFFF7FEBFFFF7FEBFFFF7FEBFFD
:10380000FFF7FEBFFFF7FEBFFFF7FEBFFFF7FEBFEC
:10381000FFF7FEBFFFF7FEBFFFF7FEBFFFF7FEBFDC
:10382000FFF7FEBFFFF7FEBFFFF7FEBFFFF7FEBFCC
:10383000FFF7FEBFFFF7FEBFFFF7FEBFFFF7FEBFBC
:0C384000FFF7FEBFFFF7FEBFFFF7FEBF63
:0400000508003705B3
:00000001FF
